:040000006EEF0CF0A3
:101000000020202020202020202020202020202000
:1010100020202020202020202020202020202020D0
:1010200020202020202020202020202020202020C0
:1010300020202020202020202020202020202020B0
:1010400020202020202020202020202020202020A0
:101050002020202020202020202020202020202090
:1010600020202020202020202020202020202000A0
:10107000414C41524D4520212028506173736167D6
:101080006520617520646573737573206465203114
:0B1090003236290048656C6C6F0000D0
:10109C003DEC0CF081EC09F0BAEC0CF0C5EC0CF06A
:1010AC0092EC0CF003EC0CF020EC0CF0000E096E42
:1010BC00000EE6EC0AF0940E086E100E096E94EC1D
:1010CC000BF0000E016E200E026EA00E9FEC0AF0CB
:1010DC00010E016E030E026E130E036E000E046EF3
:1010EC00A00EF0EC08F0000E096E000EE6EC0AF013
:1010FC00940E086E100E096E94EC0BF0010E016E3E
:10110C00030E026E130E036E000E046EA00EF0ECB6
:10111C0008F0000E096E020EE6EC0AF0155057ECC2
:10112C000AF0020E096E020EE6EC0AF0145057ECAF
:10113C000AF0040E096E020EE6EC0AF0135057EC9E
:10114C000AF083B6ACEF08F0AEEF08F0CAEF08F087
:10115C00010E016E000E026EA00E9FEC0AF0020E44
:10116C00016E000E026EA00E9FEC0AF0030E016ED3
:10117C00000E026EA00E9FEC0AF083A6C8EF08F0DA
:10118C00CAEF08F0C3EF08F0020E016EA00EF2ECED
:10119C0009F0126E1250D8B4D6EF08F0D8EF08F060
:1011AC00E6EF08F0000E096E030EE6EC0AF0700E86
:1011BC00086E100E096E94EC0BF0898A79EF08F02A
:1011CC00010E086E100E096E94EC0BF079EF08F01E
:1011DC0000EF00F0056EC580C5B0F7EF08F0F9EF31
:1011EC0008F0F2EF08F005C0C9FF9E969EA601EF2D
:1011FC0009F003EF09F0FCEF08F0C5BC08EF09F0AB
:10120C000AEF09F003EF09F001C0C9FF9E969EA6F4
:10121C0012EF09F014EF09F00DEF09F0C5BC19EF4E
:10122C0009F01BEF09F014EF09F0C580C5B021EFF0
:10123C0009F023EF09F01CEF09F00528C96E9E9602
:10124C009EA62BEF09F02DEF09F026EF09F0C5BC97
:10125C0032EF09F034EF09F02DEF09F09E96C586B8
:10126C009EA63BEF09F03DEF09F036EF09F003C005
:10127C00D9FF04C0DAFFC9CFDFFF9E96010E066EC0
:10128C0064EF09F0C59AC5889EA64FEF09F051EF9F
:10129C0009F04AEF09F0C5869E969EA658EF09F014
:1012AC005AEF09F053EF09F006500324D96E000EE3
:1012BC000420DA6EC9CFDFFF9E96062A0250065C28
:1012CC00D8A06BEF09F06DEF09F048EF09F0C58A73
:1012DC00C5889EA674EF09F076EF09F06FEF09F060
:1012EC009E96C5849EA67DEF09F07FEF09F078EFFE
:1012FC0009F09E961200000E096E000E906E1F0EE5
:10130C00916E000E996E000E9A6E919A918C919836
:10131C00040E57EC0CF091880C0E57EC0CF0A8EF67
:10132C0009F0092A0C0E57EC0CF0C80E0964A1EF59
:10133C0009F0A3EF09F0A8EF09F08B828F808B9452
:10134C00000E096EE6EC0BF00009D8B4B0EF09F012
:10135C00B2EF09F097EF09F00F0E056E210E066E35
:10136C00270E5DEC0BF0000E056E220E066E000EC5
:10137C005DEC0BF0000E056E240E066E000E5DEC9F
:10138C000BF07B0E056E400E066E000E5DEC0BF046
:10139C00000E056E410E066E280E5DEC0BF0800EF5
:1013AC00056E420E066E000E5DEC0BF0000E056E27
:1013BC00430E066E280E5DEC0BF0800E80EC0CF0EC
:1013CC009C0E80EC0CF0A00E80EC0CF0700E056EF8
:1013DC00020EBFEC0BF01200036EC580C5B0F9EF26
:1013EC0009F0FBEF09F0F4EF09F003C0C9FF9E967A
:1013FC009EA603EF0AF005EF0AF0FEEF09F0C5BC5C
:10140C000AEF0AF00CEF0AF005EF0AF001C0C9FF71
:10141C009E969EA614EF0AF016EF0AF00FEF0AF054
:10142C00C5BC1BEF0AF01DEF0AF016EF0AF0C580E1
:10143C00C5B023EF0AF025EF0AF01EEF0AF00328DF
:10144C00C96E9E969EA62DEF0AF02FEF0AF028EF9C
:10145C000AF0C5BC34EF0AF036EF0AF02FEF0AF0B1
:10146C009E96C5869EA63DEF0AF03FEF0AF038EF38
:10147C000AF0C9CF02F09E96C58AC5889EA649EF90
:10148C000AF04BEF0AF044EF0AF09E96C5849EA634
:10149C0052EF0AF054EF0AF04DEF0AF09E9602500C
:1014AC001200086E08380F0B096E090E096461EF03
:1014BC000AF063EF0AF068EF0AF00950170F096E93
:1014CC006EEF0AF00950100F096E6EEF0AF000F083
:1014DC00C00E056E0950BFEC0BF00009D8B479EFC3
:1014EC000AF07BEF0AF06DEF0AF008500F0B096E53
:1014FC00090E096484EF0AF086EF0AF08BEF0AF00C
:10150C000950170F096E91EF0AF00950100F096E70
:10151C0091EF0AF000F0C00E056E0950BFEC0BF015
:10152C000009D8B49CEF0AF09EEF0AF090EF0AF095
:10153C001200036EC580C5B0A6EF0AF0A8EF0AF042
:10154C00A1EF0AF003C0C9FF9E969EA6B0EF0AF069
:10155C00B2EF0AF0ABEF0AF0C5BCB7EF0AF0B9EF87
:10156C000AF0B2EF0AF001C0C9FF9E969EA6C1EF29
:10157C000AF0C3EF0AF0BCEF0AF0C5BCC8EF0AF0E2
:10158C00CAEF0AF0C3EF0AF002C0C9FF9E969EA6EE
:10159C00D2EF0AF0D4EF0AF0CDEF0AF0C5BCD9EFC8
:1015AC000AF0DBEF0AF0D4EF0AF09E96C5849EA6F3
:1015BC00E2EF0AF0E4EF0AF0DDEF0AF09E9612007B
:1015CC000C6E7B0E0E6E000E0D6E0F0E0C64F1EF9A
:1015DC000AF0F3EF0AF0F5EF0AF0000E0C6E270E8E
:1015EC000964FBEF0AF0FDEF0AF0FFEF0AF0000EC2
:1015FC00096E0C50280DF3CF0AF0F4CF0BF0095004
:10160C000A26000E0B220D500A240D6E0E500B20D4
:10161C000E6E12EF0BF000F00E50056E240E066EDF
:10162C000D505DEC0BF00009D8B41FEF0BF021EF5F
:10163C000BF011EF0BF01200000E026E020E046E96
:10164C0052EF0BF0996891809196919200F087CFB0
:10165C0003F0918291860350030B036E030E031863
:10166C00D8B43BEF0BF03DEF0BF050EF0BF0022A30
:10167C000C0E57EC0CF0F90E026447EF0BF049EF2F
:10168C000BF052EF0BF08B948B828F80000E046E5C
:10169C0052EF0BF0010E046E020E0418D8B459EF81
:1016AC000BF05BEF0BF028EF0BF004501200076E01
:1016BC00000E086E22EC0BF0E806D8A468EF0BF0D5
:1016CC006AEF0BF092EF0BF00C0E57EC0CF007508E
:1016DC00A0EC0CF022EC0BF0E806D8A478EF0BF0A1
:1016EC007AEF0BF092EF0BF00C0E57EC0CF0055060
:1016FC00A0EC0CF022EC0BF0E806D8A488EF0BF071
:10170C008AEF0BF092EF0BF00C0E57EC0CF006502E
:10171C00ADEC0CF0010E086E08501200AEEF0BF0A1
:10172C0000F0C00E056E08C0F6FF09C0F7FF000EF2
:10173C00F86E0800F550E00FBFEC0BF00009D8B4C0
:10174C00AAEF0BF0ACEF0BF096EF0BF0084A092A5E
:10175C0008C0F6FF09C0F7FF000EF86E0800F55040
:10176C000009D8A4BCEF0BF0BEEF0BF097EF0BF019
:10177C001200066E000E076E22EC0BF0E806D8A4E1
:10178C00CAEF0BF0CCEF0BF0E4EF0BF00C0E57ECB8
:10179C000CF00650A0EC0CF022EC0BF0E806D8A4F0
:1017AC00DAEF0BF0DCEF0BF0E4EF0BF00C0E57EC78
:1017BC000CF00550ADEC0CF0010E076E075012004A
:1017CC00996891809196919200F000F000F087CF8B
:1017DC0001F0918291860150030B030AD8A4F9EF12
:1017EC000BF0FBEF0BF0FFEF0BF0010E016E01EFB6
:1017FC000CF0000E016E01501200000E056E240E4E
:10180C00066E000E5DEC0BF0000E0A6E000E096EFB
:10181C00C00E056E000EBFEC0BF0094A0A2A800EB2
:10182C000A180910D8A41DEF0CF01FEF0CF00EEFE6
:10183C000CF01200800E056E240E066E000E5DEC90
:10184C000BF0800E0A6E000E096EC00E056E000EB7
:10185C00BFEC0BF0094A0A2AF80E0A180910D8A492
:10186C003AEF0CF03CEF0CF02BEF0CF01200A00E4A
:10187C000F01266F030E256F080E246F000E236FC9
:10188C008B948B928F90929492969298929A949425
:10189C0094929890948694889586899AF19E538D0B
:1018AC001200016E65EF0CF000F000F000F000F09B
:1018BC0000F000F000F000F000F000F00106015024
:1018CC00D8A46BEF0CF06DEF0CF05AEF0CF012008B
:1018DC008C0EF66E190EF76E000EF86E0900F5CF31
:1018EC0016F000EE0FF0070EEE6AE806FDE10001BF
:1018FC004EEF08F0056E22EC0BF0E806D8A489EF49
:10190C000CF08BEF0CF091EF0CF00C0E57EC0CF084
:10191C000550ADEC0CF01200000EC76E000EC66E3A
:10192C00C650F00B0809C66E000EC56E770EC86E59
:10193C00C68A1200016E01C090FF000E996E919044
:10194C009196919400F000F0918491861200016EB2
:10195C0001C090FF000E996E91809196919400F0C9
:10196C0000F0918491861200000E686E310E676E45
:10197C009598959C979E8E8EA19A678A120012005C
:01198C000159
:020000040020DA
:08000000FFFFFFFFFFFFFFFF00
:020000040030CA
:0E00000015136100308081FFFFC0FFE0FF405C
:00000001FF
