:0400000051EF0CF0C0
:101000000020202020202020202020202020202000
:1010100020202020202020202020202020202020D0
:1010200020202020202020202020202020202020C0
:10103000202020202000414C41524D4520212028D5
:1010400050617373616765206175206465737375A2
:101050007320646520313236290048656C6C6F005E
:01106000008F
:1010620020EC0CF064EC09F09DEC0CF0A8EC0CF018
:1010720075EC0CF0E6EC0BF003EC0CF0000E096ED4
:10108200000EC9EC0AF05A0E086E100E096E77ECCB
:101092000BF0000E016E200E026EA00E82EC0AF022
:1010A200010E016E030E026E140E036E000E046E2C
:1010B200A00ED3EC08F0000E096E000EC9EC0AF087
:1010C2005A0E086E100E096E77EC0BF0010E016ECF
:1010D200030E026E140E036E000E046EA00ED3EC0D
:1010E20008F0000E096E020EC9EC0AF016503AEC36
:1010F2000AF0020E096E020EC9EC0AF015503AEC23
:101102000AF0040E096E020EC9EC0AF014503AEC11
:101112000AF083B68FEF08F091EF08F0ADEF08F018
:10112200010E016E000E026EA00E82EC0AF0020E9B
:10113200016E000E026EA00E82EC0AF0030E016E2A
:10114200000E026EA00E82EC0AF083A6ABEF08F04E
:10115200ADEF08F0A6EF08F0020E016EA00ED5EC7E
:1011620009F0136E1350D8B4B9EF08F0BBEF08F0D2
:10117200C9EF08F0000E096E030EC9EC0AF0360E34
:10118200086E100E096E77EC0BF0898A5CEF08F09E
:10119200010E086E100E096E77EC0BF05CEF08F092
:1011A20000EF00F0056EC580C5B0DAEF08F0DCEFA5
:1011B20008F0D5EF08F005C0C9FF9E969EA6E4EFA1
:1011C20008F0E6EF08F0DFEF08F0C5BCEBEF08F03F
:1011D200EDEF08F0E6EF08F001C0C9FF9E969EA66B
:1011E200F5EF08F0F7EF08F0F0EF08F0C5BCFCEF00
:1011F20008F0FEEF08F0F7EF08F0C580C5B004EF85
:1012020009F006EF09F0FFEF08F00528C96E9E9677
:101212009EA60EEF09F010EF09F009EF09F0C5BC28
:1012220015EF09F017EF09F010EF09F09E96C58649
:101232009EA61EEF09F020EF09F019EF09F003C096
:10124200D9FF04C0DAFFC9CFDFFF9E96010E066EFA
:1012520047EF09F0C59AC5889EA632EF09F034EF30
:1012620009F02DEF09F0C5869E969EA63BEF09F088
:101272003DEF09F036EF09F006500324D96E000E57
:101282000420DA6EC9CFDFFF9E96062A0250065C62
:10129200D8A04EEF09F050EF09F02BEF09F0C58A04
:1012A200C5889EA657EF09F059EF09F052EF09F0F1
:1012B2009E96C5849EA660EF09F062EF09F05BEF8F
:1012C20009F09E961200000E096E000E906E1F0E1F
:1012D200916E000E996E000E9A6E919A918C919871
:1012E200040E3AEC0CF091880C0E3AEC0CF08BEFF9
:1012F20009F0092A0C0E3AEC0CF0C80E096484EFCE
:1013020009F086EF09F08BEF09F08B828F808B94C6
:10131200000E096EC9EC0BF00009D8B493EF09F086
:1013220095EF09F07AEF09F00F0E056E210E066EA9
:10133200270E40EC0BF0000E056E220E066E000E1C
:1013420040EC0BF0000E056E240E066E000E40EC13
:101352000BF07B0E056E400E066E000E40EC0BF09D
:10136200000E056E410E066E280E40EC0BF0800E4C
:10137200056E420E066E000E40EC0BF0000E056E7E
:10138200430E066E280E40EC0BF0800E63EC0CF060
:101392009C0E63EC0CF0A00E63EC0CF0700E056E6C
:1013A200020EA2EC0BF01200036EC580C5B0DCEF9A
:1013B20009F0DEEF09F0D7EF09F003C0C9FF9E96EE
:1013C2009EA6E6EF09F0E8EF09F0E1EF09F0C5BCEF
:1013D200EDEF09F0EFEF09F0E8EF09F001C0C9FF06
:1013E2009E969EA6F7EF09F0F9EF09F0F2EF09F0E9
:1013F200C5BCFEEF09F000EF0AF0F9EF09F0C58075
:10140200C5B006EF0AF008EF0AF001EF0AF0032870
:10141200C96E9E969EA610EF0AF012EF0AF00BEF2D
:101422000AF0C5BC17EF0AF019EF0AF012EF0AF042
:101432009E96C5869EA620EF0AF022EF0AF01BEFC9
:101442000AF0C9CF02F09E96C58AC5889EA62CEFE7
:101452000AF02EEF0AF027EF0AF09E96C5849EA6A8
:1014620035EF0AF037EF0AF030EF0AF09E9602509D
:101472001200086E08380F0B096E090E096444EF5A
:101482000AF046EF0AF04BEF0AF00950170F096E07
:1014920051EF0AF00950100F096E51EF0AF000F0F7
:1014A200C00E056E0950A2EC0BF00009D8B45CEF37
:1014B2000AF05EEF0AF050EF0AF008500F0B096EC7
:1014C200090E096467EF0AF069EF0AF06EEF0AF09D
:1014D2000950170F096E74EF0AF00950100F096EC8
:1014E20074EF0AF000F0C00E056E0950A2EC0BF08A
:1014F2000009D8B47FEF0AF081EF0AF073EF0AF027
:101502001200036EC580C5B089EF0AF08BEF0AF0B6
:1015120084EF0AF003C0C9FF9E969EA693EF0AF0DD
:1015220095EF0AF08EEF0AF0C5BC9AEF0AF09CEF35
:101532000AF095EF0AF001C0C9FF9E969EA6A4EF9D
:101542000AF0A6EF0AF09FEF0AF0C5BCABEF0AF073
:10155200ADEF0AF0A6EF0AF002C0C9FF9E969EA662
:10156200B5EF0AF0B7EF0AF0B0EF0AF0C5BCBCEF76
:101572000AF0BEEF0AF0B7EF0AF09E96C5849EA667
:10158200C5EF0AF0C7EF0AF0C0EF0AF09E9612000C
:101592000C6E7B0E0E6E000E0D6E0F0E0C64D4EFF1
:1015A2000AF0D6EF0AF0D8EF0AF0000E0C6E270E02
:1015B2000964DEEF0AF0E0EF0AF0E2EF0AF0000E53
:1015C200096E0C50280DF3CF0AF0F4CF0BF009503E
:1015D2000A26000E0B220D500A240D6E0E500B200F
:1015E2000E6EF5EF0AF000F00E50056E240E066E38
:1015F2000D5040EC0BF00009D8B402EF0BF004EFF1
:101602000BF0F4EF0AF01200000E026E020E046EEE
:1016120035EF0BF0996891809196919200F087CF07
:1016220003F0918291860350030B036E030E03189D
:10163200D8B41EEF0BF020EF0BF033EF0BF0022AC1
:101642000C0E3AEC0CF0F90E02642AEF0BF02CEFC0
:101652000BF035EF0BF08B948B828F80000E046EB3
:1016620035EF0BF0010E046E020E0418D8B43CEFF5
:101672000BF03EEF0BF00BEF0BF004501200076E75
:10168200000E086E05EC0BF0E806D8A44BEF0BF049
:101692004DEF0BF075EF0BF00C0E3AEC0CF007501F
:1016A20083EC0CF005EC0BF0E806D8A45BEF0BF032
:1016B2005DEF0BF075EF0BF00C0E3AEC0CF00550F1
:1016C20083EC0CF005EC0BF0E806D8A46BEF0BF002
:1016D2006DEF0BF075EF0BF00C0E3AEC0CF00650C0
:1016E20090EC0CF0010E086E0850120091EF0BF016
:1016F20000F0C00E056E08C0F6FF09C0F7FF000E2D
:10170200F86E0800F550E00FA2EC0BF00009D8B417
:101712008DEF0BF08FEF0BF079EF0BF0084A092AEF
:1017220008C0F6FF09C0F7FF000EF86E0800F5507A
:101732000009D8A49FEF0BF0A1EF0BF07AEF0BF0AA
:101742001200066E000E076E05EC0BF0E806D8A438
:10175200ADEF0BF0AFEF0BF0C7EF0BF00C0E3AEC66
:101762000CF0065083EC0CF005EC0BF0E806D8A464
:10177200BDEF0BF0BFEF0BF0C7EF0BF00C0E3AEC26
:101782000CF0055090EC0CF0010E076E07501200A1
:10179200996891809196919200F000F000F087CFC5
:1017A20001F0918291860150030B030AD8A4DCEF69
:1017B2000BF0DEEF0BF0E2EF0BF0010E016EE4EF47
:1017C2000BF0000E016E01501200000E056E240E89
:1017D200066E000E40EC0BF0000E0A6E000E096E53
:1017E200C00E056E000EA2EC0BF0094A0A2A800E0A
:1017F2000A180910D8A400EF0CF002EF0CF0F1EF78
:101802000BF01200800E056E240E066E000E40ECE8
:101812000BF0800E0A6E000E096EC00E056E000EF1
:10182200A2EC0BF0094A0A2AF80E0A180910D8A4E9
:101832001DEF0CF01FEF0CF00EEF0CF01200A00EDB
:101842000F01266F030E256F080E246F000E236F03
:101852008B948B928F90929492969298929A94945F
:1018620094929890948694889586899AF19E538D45
:101872001200016E48EF0CF000F000F000F000F0F2
:1018820000F000F000F000F000F000F0010601505E
:10189200D8A44EEF0CF050EF0CF03DEF0CF012001C
:1018A200520EF66E190EF76E000EF86E0900F5CFA5
:1018B20017F000EE0FF0080EEE6AE806FDE10001F7
:1018C20031EF08F0056E05EC0BF0E806D8A46CEFDA
:1018D2000CF06EEF0CF074EF0CF00C0E3AEC0CF016
:1018E200055090EC0CF01200000EC76E000EC66E92
:1018F200C650F00B0809C66E000EC56E770EC86E94
:10190200C68A1200016E01C090FF000E996E91907E
:101912009196919400F000F0918491861200016EEC
:1019220001C090FF000E996E91809196919400F003
:1019320000F0918491861200000E686E310E676E7F
:101942009598959C979E8E8EA19A678A1200120096
:011952000193
:020000040020DA
:08000000FFFFFFFFFFFFFFFF00
:020000040030CA
:0E00000015136100308081FFFFC0FFE0FF405C
:00000001FF
